:020000040800F2
:10000000900700202D02000883190008A11800089D
:100010008119000823040008DD200008000000000A
:10002000000000000000000000000000311B00087C
:10003000250400080000000085190008331B000893
:10004000470200084702000847020008470200086C
:10005000470200084702000847020008470200085C
:10006000470200084702000847020008470200084C
:10007000470200084702000847020008470200083C
:10008000470200084702000847020008470200082C
:10009000470200084702000847020008470200081C
:1000A000470200084702000847020008470200080C
:1000B000470200080000000000000000470200089E
:1000C000470200080000000000000000470200088E
:1000D00000000000FD1F00084702000800000000AB
:1000E000470200084702000800000000000000006E
:1000F0000000000000000000000000000000000000
:10010000000000000000000000000000470200089E
:10011000000000000000000047020008470200083D
:10012000470200084702000847020008470200088B
:10013000470200080000000000000000000000006E
:10014000470200084702000847020008470200086B
:10015000470200084702000847020008470200085B
:10016000470200084702000847020008000000009C
:1001700047020008470200080000000000000000DD
:1001800047020008470200084702000800F002F892
:1001900000F03CF80AA090E8000C82448344AAF1E5
:1001A0000107DA4501D100F031F8AFF2090EBAE8E3
:1001B0000F0013F0010F18BFFB1A43F0010318479B
:1001C000F820000018210000103A24BF78C878C138
:1001D000FAD8520724BF30C830C144BF04680C604D
:1001E000704700000023002400250026103A28BF95
:1001F00078C1FBD8520728BF30C148BF0B60704799
:100200001FB502F02FF81FBD10B510BD00F0CFF8DC
:100210001146FFF7F5FF01F073FF00F0EDF803B4AE
:10022000FFF7F2FF03BC00F0F5F800000948804733
:1002300009480047FEE7FEE7FEE7FEE7FEE7FEE7C8
:10024000FEE7FEE7FEE7FEE704480549054A064BE0
:1002500070470000C51B00088D01000890010020B8
:1002600090070020900300209003002053EA020C26
:1002700000F069802DE9F04B4FF00006002B1FBF06
:10028000B3FA83F503FA05F424FA05F65E4012BFCB
:100290001643B2FA82F502FA05F4C5F120051EBF35
:1002A00022FA05FC44EA0C04203556EA044C4FEAD5
:1002B000144418BF641C4FF000084FF0000990422E
:1002C00071EB030C39D3002919BFB1FA81F701FA98
:1002D00007F6B0FA80F700FA07F6C7F120071EBF4D
:1002E00020FA07FC46EA0C062037B6FBF4FCA7EB25
:1002F0000507103F07F01F0BCBF120060CFA0BFB94
:100300002CFA06F644BFB3460026202FA4BF5E4653
:100310004FF0000B5BEA060C08BF4FF0010B19EB26
:100320000B09ABFB027C48EB0608C01B06FB02CCAA
:100330000BFB03CC71EB0C01C1E70B4602464146B7
:100340004846BDE8F08B13B54FF000004FF00001B8
:10035000AFF30080BDE81C4070474FF0000200B5CD
:10036000134694469646203922BFA0E80C50A0E8D8
:100370000C50B1F12001BFF4F7AF090728BFA0E886
:100380000C5048BF0CC05DF804EB890028BF40F852
:10039000042B08BF704748BF20F8022B11F0804F94
:1003A00018BF00F8012B70477047704770477546BB
:1003B00000F02CF8AE4605006946534620F00700D1
:1003C000854618B020B5FFF73FFFBDE820404FF04D
:1003D00000064FF000074FF000084FF0000B21F02F
:1003E0000701AC46ACE8C009ACE8C009ACE8C009FC
:1003F000ACE8C0098D46704710B50446AFF30080E5
:100400002046BDE81040FFF70ABF000000487047D3
:100410002C01002001491820ABBEFEE72600020097
:100420007047FEE7704772B6FEE710B590F82510EA
:100430000022022905D00421C16380F82420012074
:1004400010BD01680B6823F00E030B6001680B6898
:1004500023F001030B6090F84410046C01F01C03BE
:10046000012101FA03F3636080F8251080F824204D
:10047000104610BD10B590F825100024022903D0B5
:100480000421C16301241AE001680A6822F00E0207
:100490000A6001680A6822F001020A6090F84410BC
:1004A000036C01F01C02012101FA02F25A6080F88B
:1004B0002510002180F82410816B01B18847204667
:1004C00010BD000070B5044600F014F90546601C2C
:1004D00002D004480078044400F00CF9401BA0420C
:1004E000FAD370BD140000202DE9F04FDFF8E09141
:1004F000002301270326A9F1040B85B00F2509F17C
:10050000040AABF1040EDBE007FA03FC12EA0C026A
:100510007ED00C7904F00304012C01D0022C20D1F0
:10052000846800945C0006FA04F80494009C24EAB1
:1005300008040094D1F80C80049C08FA04F8009C8C
:1005400048EA0408C0F80880446824EA0C0491F8DA
:1005500004C0CCF3001C0CFA03FC4CEA040CC0F8F9
:1005600004C00C79E443A4070DD0D0F80CC04FEAC6
:10057000430806FA08F42CEA040C8C6804FA08F420
:1005800044EA0C04C4600C7904F00304022C19D171
:10059000DC0800EB84040294246A4FEA437C4FEAAF
:1005A000DC6CCDF810C005FA0CFC24EA0C04D1F880
:1005B0001080DDF810C008FA0CF848EA0408029C24
:1005C000C4F8208004684FEA430806FA08FC24EACD
:1005D0000C0491F804C00CF0030C0CFA08FC4CEA73
:1005E000040CC0F800C04C6814F4403F67D0394C8C
:1005F000D4F860C04CF0010CC4F860C0246E23F045
:10060000030C04F001040094334C6444029400E0B1
:1006100055E0A4684FEA837C4FEA1C7805FA08FC91
:1006200024EA0C04B0F1904F06D0DFF8B0C060456A
:1006300005D14FF0010C0BE04FF0000C08E0DFF8A3
:10064000A0C0604502D14FF0020C01E04FF0070C52
:100650000CFA08FC4CEA040C029CC4F808C0D9F857
:100660000040CC46D1F8048094435FEAC82800D506
:100670001443CCF80040DAF80040D446D1F80480A6
:1006800094435FEA882800D51443CCF80040DBF897
:100690000040DC46D1F8048094435FEA883800D5F6
:1006A0001443CCF80040DEF80040F446D1F8048052
:1006B00094435FEAC83800D51443CCF800405B1C73
:1006C0000C682246DC407FF41FAF05B000F00AB88A
:1006D00008040140001002400000014000040048EE
:1006E0000008004830BCBDE8C08F0AB18161704786
:1006F0008162704701488068704700001400002044
:10070000024881680278114481607047140000201B
:1007100010B50024032000F071F8002000F008F864
:1007200008B1012401E000F025F8204610BD0000CA
:1007300070B50E4E05460024307898B14FF47A71AA
:10074000B1FBF0F00A490968B1FBF0F000F0C2FD1E
:1007500040B9102D06D200222946501E00F02EF876
:10076000756000E00124204670BD000014000020E8
:1007700020000020094808B5016E41F00101016622
:10078000016E01F001010091816D41F080518165A0
:10079000806D00F08050009008BD00000010024005
:1007A000002809DB00F01F02012191404009800070
:1007B00000F1E020C0F8001170470000F0B40E4BCB
:1007C0001B680C46C3F30223C3F10705042D00D9AF
:1007D0000425191D072901D2002300E0DB1E012694
:1007E00006FA05F1491E214099409E40761E1640AA
:1007F0003143F0BC01F073BC0CED00E0064900F0A1
:10080000070208684FF6FF03184040EA0220034A37
:1008100010430860704700000CED00E00000FA058E
:100820001649B0F5007F0868C0F3412009D00228BE
:1008300005D0086820F4C06040F4806008600020A3
:1008400070470128FBD0086820F4C06040F40070B5
:1008500008600B483222006850430A4AB0FBF2F0AD
:10086000401C00E0401E4A69520501D50028F9D11C
:1008700048694005E3D50320704700000070004040
:100880002000002040420F000248006800F4C060D1
:1008900070470000007000400248016841F4807118
:1008A00001607047007000400248016841F0040197
:1008B00001607047001002402DE9F84F0446002700
:1008C00000889C4D3E46000515D5E06B60B1B0F543
:1008D000000F04D0B0F5400F2BD001270AE0E868E4
:1008E00040F48030E86024E00021201D01F04CF845
:1008F00007001ED03E462068800338D5A86D4FF013
:100900000008C00009D4A86D40F08050A865A86D0B
:100910004FF0010800F080500090DFF81CA2DAF8D8
:10092000001041F48071CAF80010FFF7E3FE814621
:1009300010E0D5F88800E16B20F440000843C5F8CA
:100940008800D8E7FFF7D6FEA0EB0900022801D9FE
:10095000032704E0DAF80000C005F3D5EFB33E4604
:10096000B8F1000F03D0A86D20F08050A865207862
:10097000C00707D0D5F88800216A20F0030008439B
:10098000C5F888002078800707D5D5F88800616A07
:1009900020F00C000843C5F888002078800607D5B1
:1009A000D5F88800A16A20F440600843C5F88800A3
:1009B0002088800507D5D5F88800616B20F4402099
:1009C0000843C5F888002088400509D5D5F8880077
:1009D000A16B20F44010084300E02EE0C5F8880029
:1009E0002078400607D5D5F88800E16A20F4405009
:1009F0000843C5F888002088C00507D5D5F88800C9
:100A0000216B20F440300843C5F8880020884FF05F
:100A1000006780044FF080684ED5D5F88800216CBF
:100A200020F040600843C5F88800206CB8423BD1F4
:100A3000E86840F48010E8603EE0D5F8900010F4DB
:100A4000407014D0216D814211D0D5F89000D5F8B6
:100A5000901020F4407041F48031C5F89010D5F822
:100A6000901021F48031C5F89010C5F89000C007AF
:100A700011D0FFF73FFE074641F2883907E000BF7B
:100A8000FFF738FEC11B494501D9032668E7D5F8B1
:100A900090008007F4D5D5F89000216D20F44070C7
:100AA0000843C5F890005BE7404505D10121201DB2
:100AB00000F06AFF00B106462068400317D5D5F85C
:100AC0008800616C20F040600843C5F88800606CC5
:100AD000B84204D1E86840F48010E86007E040457F
:100AE00005D10121201D00F04FFF00B106462088EE
:100AF000400411D5D5F88800A16C20F0405008437F
:100B0000C5F88800A06CB0F1805F05D10221201DDE
:100B100000F03AFF00B106462088000406D555F8DB
:100B2000880FE16C20F0804008432860304600F0D8
:100B300005B80000001002400070004018BCBDE87D
:100B4000E08F00002DE9F0470F4605006BD0494EBD
:100B5000306800F00700B84209D2306820F0070082
:100B600038433060306800F00700B8425BD1287825
:100B7000414C80070AD5A868A16801F0F0018842BD
:100B800004D9A16821F0F0010143A1602878C007D1
:100B90002CD06868032811D0022812D0216898B19F
:100BA000490500293FDAA16821F003010143A16052
:100BB000FFF7A0FD804641F2883910E021688901E5
:100BC000EFE721688903ECE78907EAE7FFF792FD81
:100BD000A0EB0801494502D90320BDE8F087A068D1
:100BE000696800F00C00B0EB810FEFD12878800726
:100BF0000AD5A868A16801F0F001884204D2A16872
:100C000021F0F0010143A160306800F00700B84214
:100C10000BD9306820F0070038433060306800F0AE
:100C20000700B84201D00120D7E72878400705D552
:100C3000A068E96820F4E0600843A0602878000715
:100C400006D5A068296920F4605040EAC100A06080
:100C500000F03EF8A168094AC1F30311515C01F0AC
:100C60001F01C8400649086006480068BDE8F04713
:100C7000FFF75EBD00200240001002407022000815
:100C800020000020180000200548064900688968F7
:100C9000054AC1F30221515C01F01F01C8407047B1
:100CA0002000002000100240B0220008054806493C
:100CB00000688968054AC1F3C221515C01F01F0137
:100CC000C84070472000002000100240B0220008F9
:100CD00070B52549002318468A68CC6812F00C02CA
:100CE00004F00306214C4FEA640509D00C2A05D014
:100CF000042A32D0082A00D1284670BD012E10D116
:100D00000B681B0704D4D1F89430C3F3032302E02B
:100D10000B68C3F30313164E56F82330DAB10C2ACE
:100D2000EBD1C86800F00300022818D0032818D0BF
:100D30001846CA68CB68C2F30212C3F306234343C2
:100D4000521CB3FBF2F2C868C0F34160401C400083
:100D5000B2FBF0F070BD184670BD204670BD204655
:100D6000E7E72846E5E70000001002400024F40011
:100D7000802200082DE9F84304006FD0FA4DA868DE
:100D800000F00C06E86800F003072078C00664D580
:100D900076B10C2E01D1012F0AD0A0690028286855
:100DA0007AD040F001002860FFF7A4FC80465DE0A7
:100DB0002868800702D5A0690028DED0216A28684B
:100DC000000703D5286800F0F00004E0D5F894008F
:100DD000F02202EA1010814216D9084600F06AFE9D
:100DE00000283BD1286840F0080028602868216A64
:100DF00020F0F000084328606868E16920F47F4033
:100E000040EA0120686016E0286840F00800286089
:100E10002868216A20F0F000084328606868E169CA
:100E200020F47F4040EA0120686026B9206A00F083
:100E300041FE0028D5D1FFF74BFFA968CB4AC1F38B
:100E40000311515C01F01F01C840C9490860C9483D
:100E50000068FFF76DFC00287ED12EE0CAE000BFDD
:100E6000FFF748FCA0EB0800022876D82868800726
:100E7000F6D5286840F0080028602868216A20F02C
:100E8000F000084328606868E16920F47F4040EA88
:100E90000120686011E0FFE720F001002860FFF703
:100EA00029FC804606E000BFFFF724FCA0EB080009
:100EB0000228DAD828688007F6D42078C00740D006
:100EC000082E18D00C2E01D1032F14D06068B0F575
:100ED000803F17D0B0F5A02F286817D020F48030BD
:100EE0002860286820F4802028606068E0B1FFF75F
:100EF00001FC804614E02868800322D56068002841
:100F000078D01EE0286840F48030EDE740F480207F
:100F10002860F7E7FFF7EEFBA0EB08006428A4D8F1
:100F200028688003F6D50CE0FFF7E4FB804605E077
:100F3000FFF7E0FBA0EB0800642896D82868800340
:100F4000F6D4207880073BD5042E11D00C2E01D189
:100F5000022F0DD0E06801E0AAE1FFE00028286838
:100F60001ED040F480702860FFF7C4FB07460CE0F9
:100F7000286840050CD5E0680028C1D008E000BF13
:100F8000FFF7B8FBC01B022893D828684005F7D5A7
:100F90006868217C20F0F85040EA016068600FE04A
:100FA00020F480702860FFF7A5FB074605E000BF2E
:100FB000FFF7A0FBC01B0228B1D828684005F7D472
:100FC0002078000729D560690028D5F8940012D050
:100FD00040F00100C5F89400FFF78CFB074604E0E1
:100FE000FFF788FBC01B022899D8D5F8940080072A
:100FF000F6D512E02BE120F00100C5F89400FFF7D0
:1010000079FB074605E000BFFFF774FBC01B022811
:1010100085D8D5F894008007F6D42078400766D5A7
:10102000A86D0027C00008D4A86D40F08050A865C6
:10103000A86D012700F0805000904F480168C90555
:1010400012D40168814641F480710160FFF752FBC0
:10105000804605E0FFF74EFBA0EB080002287DD894
:10106000D9F80000C005F5D5A068012816D00528DC
:10107000D5F8900017D020F00100C5F89000D5F801
:10108000900020F0040000BFC5F89000A06841F275
:101090008839C0B1FFF72EFB80460FE0D5F89000ED
:1010A00040F00100F0E740F00400C5F89000F5E7DB
:1010B000FFF720FBA0EB080149454FD8D5F8900079
:1010C0008007F5D50EE0FFF715FB804606E000BF70
:1010D000FFF710FBA0EB080149453FD8D5F8900079
:1010E0008007F5D41FB1A86D20F08050A865207846
:1010F000800628D5606A0028D5F8980012D040F004
:101100000100C5F89800FFF7F5FA074605E000BFB3
:10111000FFF7F0FAC01B022820D8D5F89800800706
:10112000F6D510E020F00100C5F89800FFF7E2FACC
:10113000074604E0FFF7DEFAC01B02280ED8D5F8F8
:1011400098008007F6D4A06AF0B3022816D00C2EBF
:101150007DD0286820F08070286000E0A7E0FFF7CD
:10116000C9FA0446A6E00000001002407022000800
:10117000200000201800002000700040E868E26AAB
:1011800000F00301914228D1216B00F070020901A7
:101190001039914221D1626B00F4FE41B1EB022F74
:1011A0001BD194F8382000F07841B1EBC26F14D114
:1011B000A18F00F4C00249084905A1F50011914230
:1011C0000BD194F8401000E06AE04908490600F0AD
:1011D000C060A1F1007181424BD00C2E73D0286801
:1011E000400170D4286820F080702860FFF782FAF0
:1011F000064604E0FFF77EFA801B022857D82868CD
:101200008001F7D4F4E90B016FF00F0202EB01113A
:101210000843218A5204490802EB4151A26841EA7D
:1012200002210843217D4FF07E42490802EB4161D3
:101230000843217B40EAC160E968244A1140084321
:10124000E860286840F080702860E86800E03AE0D4
:1012500040F08070E860FFF74DFA044605E000BFFB
:10126000FFF748FA001B022821D828688001F7D52B
:1012700027E02868800124D4286840F08070286026
:10128000E86840F08070E860FFF734FA044604E054
:10129000FFF730FA001B022809D828688001F7D52B
:1012A0000FE000BFFFF726FA001B022802D9032037
:1012B000BDE8F88328688001F4D4E8680449084050
:1012C000E8600020F4E70120F2E700008C809D0137
:1012D000FCFFEEFE10B5401EB0F1807F01D301206F
:1012E00010BD4FF0E02460610F21601700F0F7FEA1
:1012F0000020A06107202061002010BD70477047CA
:10130000704700002DE9F04102680446D069116879
:10131000936840F60F0528424FF0000505D1860678
:101320007ED58E067CD5616E1BE1994F03F00106D8
:101330000F40374374D0C70709D0CF0507D5012721
:101340001762D4F8802042F00102C4F8802082079E
:101350000AD5DA0708D0276802223A62D4F880203A
:1013600042F00402C4F8802042070AD5DA0708D008
:10137000236804221A62D4F8802042F00202C4F8E2
:10138000802002070CD501F02002324308D02368E8
:1013900008221A62D4F8802042F00802C4F88020A3
:1013A00002050BD54A0109D523684FF400621A6281
:1013B000D4F8802042F02002C4F88020D4F88020A5
:1013C000002A35D0800605D5880603D5616E09B19F
:1013D00020468847D4F8800021688968490602D4ED
:1013E00010F0280F26D0204600F090FC206880687E
:1013F00040061AD52068083050E8001F21F040014F
:1014000040E80012002AF5D1206F70B16149816374
:10141000206FFFF72FF800280AD0206F816B01E0C2
:101420000EE02046BDE8F04108472046FFF768FF80
:10143000BDE8F0812046FFF763FFC4F88050F7E76E
:10144000276E2026012F7BD1C70679D5CF0677D509
:101450001020106220688068400641D5216F08681E
:1014600040680004000CE3D0B4F858208242DFD971
:10147000A4F85A000868006880062AD4206850E85A
:10148000001F21F4807140E80012002AF6D1206884
:10149000083050E8001F21F0010140E80012002A46
:1014A000F5D12068083050E8001F21F0400140E8E5
:1014B0000012002AF5D1E6672566216851E8000F81
:1014C00020F0100041E80002002AF6D1206FFEF75C
:1014D000ACFFB4F85800B4F85A10401A81B22AE0B0
:1014E000B4F85800B4F85A10401A81B2B4F85A004F
:1014F00000289DD000299BD0226852E8000F20F4DC
:10150000907042E80003002BF6D12068083050E8C4
:10151000002F22F0010240E80023002BF5D1E667FE
:1015200025666566226852E8000F20F0100042E848
:101530000003002BF6D12046FFF7E0FE78E7FFE737
:10154000C70209D55B0207D54FF480101062204610
:10155000BDE8F041FFF7D3BE020606D50A0604D562
:10156000A16E00297FF45DAF62E74006E6D548062C
:10157000E4D52046026852E8001F21F0400142E80D
:101580000013002BF6D18667856600F088F94FE7D7
:1015900020010004F91C000810B5040002D0A06F5F
:1015A00010B107E0012010BD002084F8740020462F
:1015B00000F026F82420A0672068016821F00101CE
:1015C0000160204600F0C8FB0128ECD0606A10B131
:1015D000204600F0FFFA2068416821F49041416004
:1015E0002068816821F02A0181602068016841F04B
:1015F000010101602046BDE8104000F04FBB000033
:101600002DE9F0439BB00446142115A8FEF7A5FE72
:1016100054216846FEF7A1FE30492068304C03276C
:10162000002502264FF007084FF0904988422ED13E
:101630000120009008956846FFF73EF908B1FEF7D3
:10164000F2FE206E40F480402066206E00F4804060
:101650001A90E06C40F00100E064E06C17AA00F022
:1016600001001A904FF4C060CDE9150682E8A00190
:1016700015A94846FEF738FF002211462520FFF73E
:101680009DF82520FFF78CF81BB0BDE8F0831549C5
:101690008842F9D1684600960995FFF70DF908B11F
:1016A000FEF7C1FEA06D40F40030A065A06D00F40F
:1016B00000301A90E06C40F00100E064E06C17AA82
:1016C00000F001001A900C20CDE9150682E8A00177
:1016D00015A94846FEF708FFD6E70000003801408C
:1016E00000100240004400402DE9F84F0446C06F4E
:1016F0009A4616460D46202870D10DB306B394F8CD
:10170000740001286AD0012084F874004FF00008AA
:10171000C4F880802221E167C4F860805834FEF765
:10172000E9FF24F8026B814624F852694FF4805394
:1017300054F80809FF21984208D122691AB11CE027
:10174000012000F04DB840F2FF1116E07F2290B169
:10175000B0F1805F14D0A4F85C8000BFB4F85C7076
:10176000984201D1206990B12E46002584F87480FA
:1017700007F0FF0825E0266936B9A4F85C10EDE70C
:10178000216909B13F21F8E7A4F85C20E6E70026CB
:10179000ECE74B46002220212046CDF800A000F0C7
:1017A000C9FB08B10320CCE72068808C8EB100EA29
:1017B000080006F8010B00BFB4F85A00401EA4F858
:1017C0005A00B4F85A000028E3D12020E067002036
:1017D000B7E7384025F8020BEEE7FFE70220B0E755
:1017E00018BCBDE8E08F00002DE9F8430446806F87
:1017F0001F4616460D4620284FD1CDB1C6B194F8EC
:101800007400012849D0012084F874004FF00008CA
:10181000C4F880802120A067FEF76CFFA4F8506018
:101820008146A4F85260A068B0F5805F03D004E060
:101830000120BDE8F883206928B12E465FF000053D
:1018400084F8748010E00026FAE78021204600F03A
:1018500071FBB8B9C6B116F8010B21680885B4F858
:101860005200401EA4F85200B4F852004B464FF00C
:10187000000200970028E8D14FF04001204600F018
:1018800059FB30B10320D4E735F8020BC0F3080050
:10189000E3E72020A0670020CBE70220C9E77047DC
:1018A000FEE7000010B586B014216846FEF755FD2E
:1018B0001548C16C41F00401C164C16C01F0040120
:1018C0000591C16C41F00101C164C16C01F00101DD
:1018D0000591C16C41F00201C164C06C0B4C00F079
:1018E00002000590002208212046FEF7FEFE082097
:1018F000009001200021CDE90101039169462046B5
:10190000FEF7F2FD06B010BD0010024000040048D2
:101910000C4810B50A4901604FF4E13141600021E3
:1019200081600C22C160C0E904128161C161016261
:101930004162FFF731FE002801D072B6FEE710BD0C
:1019400000380140240000200C4810B50A4901600D
:101950004FF496414160002181600C22C160C0E9D2
:1019600004128161C16101624162FFF715FE002826
:1019700001D072B6FEE710BD00440040A800002070
:10198000FEE7FEE7704700002DE9F041444C0546B4
:101990008846E0680026810728680DD0E16801F0DC
:1019A0000301814216D1A8B1E0686968C0F3021052
:1019B000401C88420ED120E0012804D0022805D026
:1019C000032807D108E02168890701E0216849055B
:1019D000002907DB01265FE02168890302D4216822
:1019E0004903F5E7E1686A686FF00F0321F07301BE
:1019F00003EB021211430143E160206820F0806094
:101A00002060FEF777FE074605E000BFFEF772FE96
:101A1000C01B022837D820680001F7D4B8F1000FA6
:101A200018D0B8F1010F1DD0287D4FF07E4140083D
:101A300001EB4060A96840EA01202169194A114080
:101A400008432061206840F080602060FEF752FE6D
:101A500007461AE0A868297B000240EAC1602169B4
:101A6000114AECE7288A1149400801EB4050A96867
:101A700040EA012021690E4AE1E700BFFEF73AFE85
:101A8000C01B022801D9032606E020680001F5D515
:101A90002069A969084320613046BDE8F081000053
:101AA00000100240FF80FFF9FF80FF070000E0FF09
:101AB000FF809FFFF8B51C4D06460024A86DC000AE
:101AC00002D5FEF7E1FE0DE0A86D40F08050A8655C
:101AD000A86D00F080500090FEF7D6FEA96D21F0B1
:101AE0008051A965B0F5007F04D0802E07D94FF052
:101AF00003040AE0802E08D9A02E01D804E001D109
:101B0000022402E0702E00D101240848016821F06F
:101B1000070121430160006800F00700A04201D0E6
:101B20000120F8BD0020F8BD001002400020024056
:101B30007047FEF7E5BD000010B596B04421684639
:101B4000FEF70BFC142111A8FEF707FC4FF4007000
:101B5000FEF766FE08B172B6FEE7FEF79DFE184876
:101B600050F8901F21F0180101601420009001200E
:101B70000290002460210690CDE907410221CDE9C1
:101B80000A100C9010200D900720CDE90E01684638
:101B90001091FFF7EFF808B172B6FEE70F20119031
:101BA0000320CDE912041494012111A81594FEF725
:101BB000C9FF08B172B6FEE7FEF776FE16B010BD9B
:101BC000001002400248016841F470010160704752
:101BD00088ED00E090F82410C90706D001684A6833
:101BE000836A22F400321A434A6090F8241089076D
:101BF00006D501684A68C36A22F480321A434A60F3
:101C000090F82410490706D501684A68036B22F44E
:101C100080221A434A6090F82410090706D501680B
:101C20004A68436B22F400421A434A6090F8241039
:101C3000C90606D501688A68836B22F480521A436C
:101C40008A6090F82410890606D501688A68C36BFB
:101C500022F400521A438A6090F82410490611D5E4
:101C600001684A68036C22F480121A434A60016CCE
:101C7000B1F5801F06D101684A68436C22F4C002A6
:101C80001A434A6090F82410090606D501684A688C
:101C9000806C22F4002202434A607047F8B50026A7
:101CA0000446C0F88060FEF725FD05462068006800
:101CB0006FF07E47000708D52B4600224FF4001135
:101CC0002046009700F036F960B9206800684007A8
:101CD0000AD52B4600224FF480012046009700F0E1
:101CE00029F908B10320F8BD2020A067E067266627
:101CF00084F874600020F8BD10B5806A0021A0F857
:101D00005A10A0F85210FFF7FBFA10BD016851E815
:101D1000002F22F4907241E80023002BF6D10168D5
:101D2000083151E8002F22F0010241E80023002B86
:101D3000F5D1016E012908D1026852E8001F21F097
:101D4000100142E80013002BF6D12021C1670021C9
:101D500001664166704700002DE9F04104460168C4
:101D600080682269E66910436269002532431043A6
:101D7000694B0A68694E324002430A602068416834
:101D8000E26821F44051114341602168A069994201
:101D900001D0226A10438A6822F4306202438A60CA
:101DA0005F4927685F488F420DD1D0F8880010F056
:101DB000030006D0012838D0022834D0032821D1CE
:101DC00035E001211FE058498F420BD1D0F888003F
:101DD00010F00C0025D0042827D0082823D00C2888
:101DE00010D124E09F420DD1D0F8880010F440605B
:101DF00017D0B0F5806F18D0B0F5006F13D0B0F5E4
:101E0000406F14D01021494A00264FF400409F42F1
:101E10002FD171B102290FD004290FD0082973D115
:101E20000FE00021EFE70221EDE70421EBE70821B5
:101E3000E9E7FEF729FF03E0104602E0FEF748FF5E
:101E4000F0B3626802EB420181425DD8B0EB023F21
:101E50005AD8010E03025008181871410023FEF7EA
:101E600005FA334AA0F5407191424DD82168C86007
:101E70004BE0E3694FF6EF77834228D1092943D23B
:101E8000DFE801F005080B420D4242421000FEF768
:101E9000FBFE06E0FEF70AFF03E0104602E0FEF755
:101EA00017FF68B14100606801EB5001B1FBF0F031
:101EB000A0F11001B94227D84FF6F071014000E0BF
:101EC00023E0C0F3420001432068C1601DE00929FE
:101ED0001AD2DFE801F005080B190D1919191000C5
:101EE000FEF7D2FE06E0FEF7E1FE03E0104602E058
:101EF000FEF7EEFE48B1616800EB5100B0FBF1F077
:101F0000A0F11001B94205D9012566662846A666EA
:101F1000BDE8F08180B2A9E700800040F369FFEFDF
:101F20000038014000100240004400400024F4004A
:101F3000FFFC0F002DE9F0479A4617460E4604466F
:101F40004FF000094FF02008089D4AE0681C48D077
:101F5000FEF7D0FBA0EB0A00A8422AD84DB32068B8
:101F6000016849073DD5C069C043000539D42168DF
:101F70004FF400600862206850E8001F21F4D0711F
:101F800040E80012002AF6D12068083050E8001F0F
:101F900021F0010140E80012002AF5D1C4F8788050
:101FA000C4F87C80C4F8808084F874900320BDE875
:101FB000F087216851E8000F20F4D07041E800025A
:101FC000002AF6D12068083050E8001F21F00101F6
:101FD00040E80012002AF5D1C4F87880C4F87C806B
:101FE000E2E72068C06936EA000004D00020B84269
:101FF000ACD00020DBE70120F9E700002DE9F0413B
:102000003148FFF77FF96423012230492E48FFF75A
:102010006BFB2E4801230226042742684FF0050C73
:102020004FF0FF3E032401462AB10025012A1AD0B1
:10203000022A37D040E00978254A52290AD04C2993
:102040000AD0462935D0422908D0532908D0C0F8F3
:1020500004E031E016602FE017602DE014602BE003
:10206000C2F800C028E00A781A49302A0DD0312A77
:102070000DD0322A0DD0332A0DD0342A0DD0352A76
:102080000DD0C1F800E0456016E00D6014E00B6073
:1020900012E00E6010E00C600EE00F600CE0C1F882
:1020A00000C009E009780C4A482902D0782902D0FA
:1020B00002E0136000E015604168491C416003299B
:1020C00000DD4460BDE8F081240000200C00002009
:1020D000000000200400002008000020FEE709079F
:1020E000090E002804DB00F1E02080F8001470479E
:1020F00000F00F0000F1E02080F8141D7047000090
:1021000088B0FEF705FBFFF717FDFFF7CBFBFFF7E6
:10211000FFFBFFF719FC4C480068016841F0200103
:102120000160C2208DF80800CA208DF80C00C12083
:102130008DF81000C9208DF8140044A00025D0E9C6
:1021400000100695CDE90010DFF80881424E434C9F
:102150006F4630680328FCD1207801280CD0207805
:1021600002280DD02078032817D02078042827D003
:102170002078052837D052E06423012202A922E00A
:102180006423012202A90BE02F488430FFF72CFBC7
:1021900060686423391801223DE06423012204A908
:1021A00029488430FFF720FB6068642339182648EB
:1021B00001228430FFF718FB6423012205A9E3E71D
:1021C0006423012204A920488430FFF70DFB6068D6
:1021D000642339181C4801228430FFF705FB64236F
:1021E000012203A9D0E718486423012202A9843000
:1021F000FFF7FAFA14486423012206A98430FFF796
:10220000F3FA11486423012203A98430FFF7ECFAA2
:102210006423012206A90C488430FFF7E5FAA06880
:1022200008B1012200E0002208214046FEF75DFAD5
:102230006420FEF747F925704FF0FF3060600848D2
:1022400005703560A56084E72400002025334C5CD0
:10225000667F0000000400481000002000000020FD
:102260000C0000204FF04070E1EE100A70470000B3
:102270000000000000000000010203040607080936
:10228000A0860100400D0300801A060000350C00F6
:1022900040420F0080841E0000093D0000127A00B9
:1022A0000024F40000366E010048E801006CDC02F6
:1022B0000000000001020304D822000800000020F2
:1022C00024000000C8010008FC22000824000020AF
:1022D0006C070000E401000800000000FFFFFFFFA2
:1022E00000000000000000000000000001000000ED
:0C22F000100000000000000000093D008C
:040000050800018D61
:00000001FF
